:020000041000EA
:10000000002008205D0100101B0100101D010010E0
:100010001101001011010010110100101101001058
:100020001901001019010010190100101F01001022
:10003000110100101901001021010010230100100E
:100040001101001011010010110100101101001028
:100050001101001011010010110100101101001018
:100060001101001011010010110100101101001008
:1000700011010010110100101101001011010010F8
:1000800011010010110100101101001011010010E8
:1000900011010010110100101101001011010010D8
:1000A00011010010110100101101001011010010C8
:1000B00011010010110100101101001011010010B8
:1000C00011010010110100101101001011010010A8
:1000D0001101001011010010110100101101001098
:1000E0001101001011010010110100101101001088
:1000F0001101001011010010110100101101001078
:100100001101001011010010110100101101001067
:10011000EFF30580103800BE00BE00BE00BE00BE7A
:1001200000BE00BEF2EB8871701C0010901C001025
:10013000A001001090A31AE7D3DEFFFF42012110B7
:10014000FF010000F81E0000793512AB4FF00000EF
:100150001E49086006C881F3088810474FF05040D8
:10016000006810B14FF00000F2E70DA40ECC00299A
:1001700002D000F012F8F9E71549164A002000E015
:1001800001C19142FCD11449884714498847144958
:10019000884700BEFDE701C901C29A42FBD3704700
:1001A000901C001010010020B0040020302000102E
:1001B0000000082000000820302000100010082057
:1001C00000100820000000007047000008ED00E06B
:1001D000B0040020080A0020BD15001035020010F0
:1001E000B5150010F8B500BF064B0749C91A8910AC
:1001F00048BF0131491003D0044B0BB101481847E7
:10020000704700BFB0040020B004002000000000D0
:1002100008B5054B1BB105490548AFF30080BDE8A3
:100220000840FFF7E1BF00BF00000000C00700204A
:10023000601B0010F8B54FF4A072F021184800F0D0
:10024000A7F8184C184F194E01F08EFB054601F027
:100250008BFB034686FB0521EA17C2EBE11202EB9A
:100260008202A5EB821187FB0325DA171D44C2EB3E
:10027000E5321344002089B29DB200F0C7F9002294
:100280000B4B65F30F0265F31F4243F8042BA342A7
:10029000FBD14FF4F071064800F080F9D4E700BFBD
:1002A000601B0010E0090020018000806766666620
:1002B00000080020F0B5344C4FF0020C2568E368CC
:1002C00083B0002B2B468DF807000F4653F8041F10
:1002D000164603F54052C2F800C02A6805F5805062
:1002E000ACBF82F0070282F0C70201EA0C0103F5FD
:1002F000005302F0CF02026019600023234A01205C
:1003000000211D46137000F0ABFDE368002B01DBFC
:1003100045EC40304FF00002236942EC40300120B0
:10032000002100F09DFD012220680DF1070101F080
:10033000EFFBAEB90120002100F092FDE368002B35
:1003400003DB4FF0010242EC40304FF00102236921
:1003500042EC40300120002100F082FD03B0F0BDEE
:100360000120002100F07CFD4FF00102236942ECE6
:1003700040300120002100F073FD324639462068EC
:1003800001F0C6FBD6E700BFE4090020040A002004
:100390002DE9F0418646624C624DA446624B84B022
:1003A000006829801A800F46DEF80C30DEF8041051
:1003B0001646DEF80820ACE80F00DEF81000DEF884
:1003C0001410DEF81820ACE807005849206801F046
:1003D00051FA2268E3684FF0020C002B134653F8E1
:1003E000041F02F5805003F54055C5F800C012689F
:1003F00001EA0C01ACBF82F0070282F0C70203F5EC
:10040000005302F0CF02026019606068012100F021
:1004100035F9A068012100F031F9E068002801DB1E
:1004200000F04AF9206900F047F9606900F044F9EA
:10043000A06900F041F9E268002A03DB4FF00103F4
:1004400043EC44204FF00103206943EC4400616910
:1004500043EC4410A56943EC4450002A01DB43EC13
:1004600040204FF0010848EC400048EC4010642068
:1004700000F062FD002201201146FFF71BFF9620CD
:1004800000F05AFD002211201146FFF713FF322021
:1004900000F052FD5523002501A901223A208DF8D4
:1004A0000430FFF707FF0A2000F046FD02A90122F1
:1004B00036208DF808507FBAFFF7FCFE03A904220E
:1004C0002A20ADF80C50ADF80E7076BAFFF7F2FEA8
:1004D00003A904222B20ADF80C50ADF80E60FFF7F5
:1004E000E9FE2A4629462120FFF7E4FE0A2000F013
:1004F00023FD2A4629461320FFF7DCFE0A2000F0E0
:100500001BFD2A4629462920FFF7D4FE0A2000F0C9
:1005100013FDA36948EC403004B0BDE8F08100BF92
:10052000E4090020020A0020000A00204059730755
:1005300030B5194C0120002183B000F091FCE36834
:10054000002B03DB4FF0000242EC40304FF000057F
:10055000236945EC40300120002100F081FC2C2370
:1005600001220DF1070120688DF8073001F0D0FA63
:100570000120002100F074FCE368002B01DB45EC56
:1005800040304FF00102236942EC4030012000214D
:1005900000F066FC03B030BDE4090020F8B5194E48
:1005A000054633780C463BB1174B2946186862085C
:1005B000BDE8F84001F0A4BAFFF7BAFF124B0227DA
:1005C0001868DB6800F5805C002B034653F8041FB5
:1005D00003F540521760026801EA0701B4BFD24335
:1005E00082F00F0203F5005302F0CF02CCF8002096
:1005F00019600123294633706208BDE8F84001F014
:100600007FBA00BF040A0020E409002084460023CA
:10061000184A70B5B2F800E004224FEA1C2666F3CF
:1006200007034FEA1E256CF30F2382B065F31743CF
:100630000C466EF31F630DEB02012A200193FFF7B6
:1006400039FE00230C4A4FEA142E118804226EF35F
:1006500007034FEA112C64F30F236CF3174361F384
:100660001F632B200DEB02010193FFF723FE02B065
:1006700070BD00BF020A0020000A002010B44FF431
:1006800080740C4B53F8202003EB8003C00082F0F1
:10069000400200F1804003F5805C02F0C00200F5EA
:1006A000203003F54053CCF8002041601C605DF819
:1006B000044B70470480034030B44FF0000343EC18
:1006C000440043EC400005254FF480740B4BC200FE
:1006D00053F8201003EB800081F0400102F18043C9
:1006E00003F5203301F0C00200F5805100F54050C1
:1006F0000A605D60046030BC704700BF0480034046
:100700000FB400B583B0049C074801F07DF83CB1FC
:1007100005A92046019100F033FF044801F074F868
:10072000012000F045FF00BF7C1B00108C1B001057
:1007300070B58646EFF3108572B6124CD4E8CF6FD1
:100740000120002EFAD1C4E8460F002EF6D1BFF3E7
:100750005F8F4FF0010CC80801F007030CFA03F398
:100760001EF800C01CEA030608D14CEA030C0EF880
:1007700000C0C4E88F6F85F3108870BD1046FFF786
:10078000BFFF00BF73070020044A1078431CDBB290
:10079000182B28BF10231370704700BF4803002098
:1007A0004FF0E022936843F000539360704700BF1E
:1007B0000021044B03F12002C3E88F1F0133934251
:1007C000FAD17047680700204FF0E0234FF08032E5
:1007D000C3F80024C3F80424C3F80824C3F80C2485
:1007E000C3F81024C3F81424C3F81824C3F81C2435
:1007F000C3F82024C3F82424C3F82824C3F82C24E5
:10080000C3F8302462B67047012300F01F02934002
:10081000400941B1800000F1604000F56140C0F83E
:10082000803103607047024A203042F82030704720
:1008300000E100E0F8B50D46EFF3108772B6124EF6
:10084000D6E8CF2F0123002AFAD1C6E8423F002A7A
:10085000F6D1BFF35F8F0D4B00F110049B680C4A7B
:1008600053F82430934203D0994201D000F070FD38
:10087000064B9B6843F82450BFF35F8F0023C6E804
:100880008F3F87F31088F8BD7107002000ED00E06E
:1008900011010010014B0B440360704768070020F2
:1008A00070B5104C104DAC420ED2FF26236863B1D8
:1008B000FFF76AFF01462046FFF7ECFFA680BFF373
:1008C0005F8F0834AC42F1D370BDFFF75DFF014686
:1008D0002046FFF7DFFF2671BFF35F8F0834AC427D
:1008E000E4D370BDA8040020B00400200D4B1A68AA
:1008F000EFF3108172B6D2E8CFCF0120BCF1000F28
:10090000F9D1C2E84C0FBCF1000FF4D1BFF35F8FF7
:1009100000221B68C3E88F2F81F3108840BF00209E
:1009200000217047E00900202DE9F04F2DED028BEA
:1009300085B0EFF30583DBB2103B9A0818BF0122A4
:100940004FF0010103F0030B18BFAF4DAF4B08BFD1
:10095000AF4D0BEB820253F8226001FA0BF205F562
:1009600041539FEDA78B01925A602FE0B3881C047E
:1009700040F19380B379002B40F0DD80B6F9082078
:10098000002AC0F21E81736902EB420203EBC2032C
:10099000D3E90247B7F1FF3F08BFB4F1FF3F0ED0E4
:1009A00005EB8B01AB6A0A69D21AE31A934205D3AD
:1009B00001232A6A03FA0BF3134200D10C61284683
:1009C00000F0A4FBA042B941C0F2FB80B6F90830A8
:1009D000019A002B0093EA63C8DBD6F8148003EB7E
:1009E0004309284608EBC907D7E9024A00F08EFB05
:1009F000A04271EB0A01B9DBBAF1000FC0F2C3806B
:100A0000D7E90431834A934200F0ED807A88B6F941
:100A1000080092B242EA0040984702460B4652EA6A
:100A2000030100F0B080002B80F2D180B4EB020E05
:100A30006AEB030A38F93930C7E902EA002B95DB83
:100A4000716903EB430201EBC202D2E90270BE45B9
:100A50007AEB000C4FEA430288DBB4462CF8083FDF
:100A600006E003EB430001EBC0005A00D0E902703E
:100A7000BE451A447AEB000001EBC20404DB31F9F5
:100A80003230A446002BECDA28F83930009BACF861
:100A90000030B3881C043FF56DAF3369EFF310826B
:100AA00072B6D3E8CF0F01210028FAD1C3E8401F66
:100AB0000028F6D1BFF35F8F4FF6FF74B088002394
:100AC000316900B2B480C1E88F3F82F31088984248
:100AD000FFF650AF0746A946746906F1080807EB10
:100AE000470E04EBCE03D3E90250B6F90830C446F2
:100AF000002B13DBB246009704E034F936309446FD
:100B0000002B09DB03EB430604EBC602D2E90271BA
:100B1000BD4270EB0101F0DA5646009FACF8007060
:100B200034F93E7024F83E30002FD8DAB3794D46C0
:100B3000002B3FF423AF0023B371B6F9083006F160
:100B40000808581C3DD01A46776903E08046591CB6
:100B50003FF416AF03EB430107EBC100B0F802C04E
:100B60001C461CF4004F9E4637F93130EED09442BB
:100B700080ED028B05D0A8F80030328927F83120AB
:100B800034817246E3E738F8393033813369EFF363
:100B9000108272B6D3E8CF0F01210028FAD1C3E842
:100BA000401F0028F6D1BFF35F8F7388316928F8A2
:100BB0003930009B73800023C1E88F3F82F3108897
:100BC000D4E640BF05B0BDEC028BBDE8F08F2846EF
:100BD000CDE9022300F09AFA029A039B10EB020E71
:100BE00043EB010A26E708460B6902919847002863
:100BF000C9D00299D1E9002311E700BFAFF300800B
:100C0000FFFFFFFFFFFFFFFF00800B40D807002022
:100C100000000B40290900102DE9F84F364C2569DA
:100C20002DB1BDE8F84F0A213448FFF733BEDFF895
:100C3000E4800321404600F057FA0326C4F80C80F4
:100C4000FFF7A2FD4FF0504C2D4B2670034423615B
:100C5000DCF800300F216370636961801D834FF001
:100C60000405A3F878504FF00505A3F890504FF015
:100C70000605A3F8A8504FF007050E214FF6FF72A6
:100C800008274FF00A0EA3F8C0504FF001094FF0AB
:100C90000C0C4FF0020B4FF0090A0D204FF00B0522
:100CA000A3F868111749A280A3F808E1A160A3F88E
:100CB00048B0A3F8F0A0A3F82051A3F838C1A3F8D6
:100CC0005001A3F83090A3F86060A3F8D8701A80A0
:100CD0000D4B3046C8F820700C49DC60FFF7AAFDC8
:100CE00049463046FFF790FD094B0A211F6403482F
:100CF000BDE8F84FFFF7CEBD4C030020E00900200F
:100D000068070020FFFF1000D80700202909001005
:100D100000200B4000000B400146F0B50069EFF3E6
:100D2000108772B6D0E8CF5F0124002DFAD1C0E859
:100D3000454F002DF6D1BFF35F8FB1F902E04C694A
:100D40000EEB4E0CBEF1000F4FEACC05086904EB28
:100D5000CC0C3CDB665B4E800026C0E88F6F87F3CF
:100D60001088BCF80200CCE902230130C0F30E0069
:100D7000012838BF0120059BACF80200CCF81030E8
:100D8000069B40EA0E40CCF814300B69EFF310825A
:100D900072B6D3E8CFCF0127BCF1000FF9D1C3E879
:100DA0004C7FBCF1000FF4D1BFF35F8F8B8863538E
:100DB000A1F804E00B69C3E88F6F82F31088012269
:100DC000CB68097803F501538A405A60F0BD0023CF
:100DD000C0E88F3F87F310884FF0FF30F0BD00BFB1
:100DE00003464089B0EB214F37DD58690A1402EB06
:100DF000420210B500EBC2001C69EFF3108C72B612
:100E0000D4E8CFEF0122BEF1000FF9D1C4E84E2F94
:100E1000BEF1000FF4D1BFF35F8F428889B292B266
:100E20008A4207D000221B69C3E88F2F8CF31088F9
:100E3000002010BD42F400424280012100221869C6
:100E40009971C0E88F2F8CF310881C78DA680846F7
:100E500002F50153A140596010BD0020704700BF4A
:100E60002DE9F04182B004460E4600F057F94FF0EC
:100E7000FF326FF00043241846EB0106A24273EBE9
:100E800006013CBF14461E46A51F46F1FF37AC4283
:100E900076EB07033CBF00252F4600F03FF9281AE8
:100EA00067EB010C01287CF1000C06DA2046314684
:100EB00002B0BDE8F04100F03BB900F02FF98542E7
:100EC00067EB010100290ADB0021174B2A4600933A
:100ED00016483B460191FFF71FFF0130E6D04FF067
:100EE000000C134A1349536A9F4204D8906AA842DF
:100EF000DCD29F42DAD10B68EFF3108072B6D3E8F0
:100F0000CF8F5FF0010EB8F1000FF8D1C3E848EFC2
:100F1000B8F1000FF3D1BFF35F8F0B68C3E88FCF39
:100F200080F3108820BFDEE7ED0800104C0300209E
:100F300000000B40E00900202DE9F04182B0064698
:100F400000F0ECF84FF47A7304464FF0FF306FF086
:100F50000042E6FB0341A04272EB01033ABF0446A4
:100F600015460D46A61F45F1FF37B44275EB070342
:100F70003CBF0026374600F0D1F8301A67EB01017C
:100F8000012871F1000106DA2046294602B0BDE8C9
:100F9000F04100F0CDB800F0C1F8864267EB0101E6
:100FA00000290ADB0021174B3246009316483B46C6
:100FB0000191FFF7B1FE0130E6D04FF0000C134A6B
:100FC0001349536A9F4204D8906AB042DCD29F42D0
:100FD000DAD10B68EFF3108072B6D3E8CF8F5FF0F1
:100FE000010EB8F1000FF8D1C3E848EFB8F1000FD7
:100FF000F3D1BFF35F8F0B68C3E88FCF80F3108806
:1010000020BFDEE7ED0800104C03002000000B407D
:10101000E00900202DE9F04306460D4683B0EFF3CA
:101020000584E4B23CB12D4B5A6AAA421CD200207E
:1010300003B0BDE8F0832A4FD7F80C9097F80080F2
:10104000484600F063F808F1040859F828301B1AE4
:10105000301A65EB0101984271F1000110DB20BFED
:101060001E4B5A6AAA42E2D314BF012400249B6A91
:10107000B34234BF204644F0010003B0BDE8F08322
:1010800000F04CF8864265EB0101002914DB154B9A
:101090003846CDE9003432462B46FFF73DFE011EAF
:1010A0000ADD0E4B5A6AAA4216D39B6AB34211D389
:1010B0000B48FFF795FEB6E7084B5C6AAC42B6D327
:1010C000641B18BF01249B6AB34234BF204644F01E
:1010D0000100ADE7AA42EBD120BFE9E700000B40D9
:1010E0004C030020ED08001010B4054B054C064AD7
:1010F000A04214BF1846581C5DF8044BFFF718BBFC
:101100008807002000800B40901B00100346416AB6
:101110000A46986A596A8A42FAD17047034B596A5B
:101120000A46986A596A9142FAD1704700000B400A
:10113000074A536A9942FCD8994207D1044B02E00E
:101140005A6A914202D19A6A9042F9D8704700BF18
:1011500000000B4000EB400C4FEA8C0C0CF1804C73
:101160000CF5803CF0B51646DCF80420051FB2F5FE
:10117000803F38BF4FF48032EDB238BFCCF8042046
:10118000012D2AD94FF40067254C0CF54052176009
:1011900054F82020B2B9DCF80020012D82EA461272
:1011A00002F0E0020CF5805632602AD94FF400615B
:1011B00044F820304FF480330CF500521160CCF825
:1011C0000430F0BD6769B7FBF2FE0EF1010E0EEBC5
:1011D0004E0EBEF1030EFCD2DDE70129D2D103246D
:1011E0000CF540521460DCF80820D207FBD5DCF87F
:1011F00000200B4C82EA461202F0E0020CF5805609
:1012000032600122DCF800504D4005F003053560E6
:1012100002FA01F1DCF808200A42FBD0C6E700BF61
:101220008C070020014B53F8200070478C070020EA
:1012300070B4039D04682D0345EA03451B4B002C45
:10124000B3FBF1F3B2FBF3F61FDB194A194B9042E3
:1012500014BF4FF480424FF40042174C1A6003F55C
:1012600080531A60A36832EA0303FBD1212200F500
:1012700040530433016086601A600268002AFCDA79
:101280000822C5601A6070BC7047036803F03F0312
:101290008B42DAD18368C3F30B03B342D5D1C36861
:1012A00003F4EE23AB42D0D1EDE700BF001BB70043
:1012B000008005400020024000000240012300EBB6
:1012C0004000800000F1804000F584104160036020
:1012D000704700BF0023DB8A002242E800F252027E
:1012E00001D4102118470421184700BF034AD2F83F
:1012F0002838002BFBD0BFF35F8F704700000E40F3
:101300000021044B044ABFF35F8F43F8041B934250
:10131000F9D170470C080E402C080E4010B44FF461
:101320008D704FF42A64064A064B07491460D0605A
:1013300019605368002BFCDA5DF8044B704700BF5E
:101340000080044000A0044000B0FA00704700BFD5
:1013500008B50148FFF7D4F9B41B001038B5054CA7
:10136000054DAC4204D254F8043B9847AC42FAD342
:1013700038BD00BF181B0010581B001010B40748E0
:10138000074C084B084A094904601A608B6832EA26
:101390000303FBD15DF8044B704700BF00200240FF
:1013A0007F3BEFEF00300240F6FFF3030000024006
:1013B000044BDB6CB3F5004F03D14FF48022024B9A
:1013C000DA64704700001150002011504FF0E02205
:1013D000044BD2F8881D0B43C2F8883D10EE300450
:1013E000704700BF030330006FF06041044B054AB3
:1013F00019609368DB4333F06043FAD1704700BF54
:10140000003002400000024010B545F25320FFF7C3
:1014100061FFBDE8104003460420184710B545F2AF
:101420005320FFF757FFBDE810400346012018473F
:10143000FFF7BEB91449154B70B55C1AA610442EBF
:10144000324628BF4422124D9200284600F0ACFAE2
:10145000B4F5867F13D80F4AC6F1440012D02B1979
:10146000410803EBC101C3E9002208338B42FAD1E2
:10147000C30704D520F00100304445F82020064B76
:101480009D6070BD4320F8E70000001010010010BF
:10149000000000201101001000ED00E0002370B5F5
:1014A0002B4C82B0C4F88430FFF738FF0122294B5F
:1014B000DA63636C012BFCD10321264A244B1163B0
:1014C0009C6B012CFCD10226052521460523224ACE
:1014D00022480096FFF7ACFE21462B46204A2148C1
:1014E0000095FFF7A5FE0022042031461E4BFFF7B2
:1014F00031FE2146284600221C4BFFF72BFE00221E
:10150000082011461A4BFFF725FE0022092011463C
:10151000174BFFF71FFE002206201146134BFFF763
:1015200019FE0022114B07201146FFF713FE04207D
:10153000FFF778FE00240F4BA3FB0035AD0CE0B2A3
:1015400029460134FFF7BAFE062CF8D102B070BD6F
:101550000000014000300140002F685900000540A4
:10156000008C864700800540001BB70080D1F00842
:10157000006CDC0283DE1B4300B9704700F002B947
:1015800010B5094B84B01C684CB1034600914FF074
:10159000FF3203A90548A047012004B010BD00F0A8
:1015A00033F9204604B010BDBC07002079150010A7
:1015B00000BEFDE708B5FFF7FBFF00BF38B5064CDE
:1015C000064DFFF7CBFEAC4204D254F8043B9847DB
:1015D000AC42FAD338BD00BF581B0010601B00108E
:1015E00003680846114618472DE9F0411546427D2B
:1015F00007468846002A46D0002D1DDD0B780A2BB1
:1016000023D0012D4FF0000C18D04646012416F8C7
:10161000012F21460A2A04F1010422D0A542F6D165
:1016200065450BDC08EB050313F8013CA3F10D0342
:10163000B3FA83F35B093B75BDE8F0813B68A5EB2A
:101640000C0108EB0C009847ECE7037D002BD8D188
:10165000036802210F489847012DE3D04FF0010C99
:10166000D3E716F8013C0D2BD8D08C4508EB0C00C5
:10167000A1EB0C0101DA3B689847022105483B6861
:101680009847A446CAE7294640463B68BDE8F04172
:10169000184700BF641C00102DE9F04782B00D46CA
:1016A00091461C460646FFF739FD4FF0FF3C6FF0B0
:1016B00000472E4A821841F10003944577EB03015D
:1016C0003CBF62463B462A4800F01EFA6B1C80462F
:1016D00040D00CB3274F284B1C68B4B1B9F1000FB0
:1016E0001CD1DFF89C9001E0246974B12368002BC1
:1016F000FAD0D9F800300BB19C42F5D120462A46E9
:101700003146B8472469002CF0D1B8F1000F26D13A
:10171000284602B0BDE8F087184FDCE74FF00A0A10
:10172000DFF85C9002E02469002CEED02368002BE7
:10173000F9D0D9F800300BB1A342F4D12A46314692
:101740002046B847012220460DF107018DF807A079
:10175000B847E8E7304600F09DF90546B9E7044888
:1017600000F0CAF9284602B0BDE8F08740420F00F9
:10177000A8040020E9150010B4070020E1150010AE
:10178000B8070020F0B583B006468DF80700FFF7D4
:10179000C5FC4FF0FF356FF00044174A821841F145
:1017A0000003954274EB03013CBF23462A461348CD
:1017B00000F0AAF9124B07461C689CB1114D01E0DC
:1017C00024697CB12368002BFAD02B680BB19C42B2
:1017D000F6D1204601220DF10701FFF705FF24692C
:1017E000002CEFD117B9304603B0F0BD034800F02C
:1017F00083F9304603B0F0BD40420F00A80400203A
:10180000B4070020B807002038B5044600F042F9BC
:10181000012305461A4620462946FFF73DFF084B9F
:101820001C682CB163682BB198472469002CF9D14E
:10183000284638BD2469002CF4D1284638BD00BFA5
:10184000B407002000B545F247308BB0FFF742FDEA
:1018500001220346092101A89847DDE90332044922
:1018600012BA1BBAC1E900230BB05DF804FB00BF3C
:10187000F8070020384B2DE9F047984214BF4FF489
:1018800000234FF4802307460E46344D344C354A2E
:101890002B602360956833EA0505FBD10620FFF72E
:1018A000C1FC39464FF0020A51F804EF4FEAD6590D
:1018B0004FEA462C01F5405863464A4654460EEA24
:1018C0000A0EC8F800A008E013EB0C0304F10204B0
:1018D00042EB0902B4F5807F03D0984275EB020A0F
:1018E000F2D24FF48073C4EB042201E0012B30D01C
:1018F000B0FBF2FC66459946A2EB040203F1FF330C
:10190000F4D209FB04F91D023C6102243B46032684
:101910003A6801F500516A4007F5805C02F47F42A5
:10192000CCF80020C1F800E07D68C8F8004053F80A
:10193000242B254082F0070202F0CF0203F500536A
:10194000CCF80020B0FBF9F00D601E600C60BDE823
:10195000F087A146D8E700BF000008400020024001
:1019600000300240000002400C4B0D4819680D4A3F
:10197000D1F8983010B403FB00F0D1F89C4002FB82
:1019800004005DF8044BA3FB0232013340EB02007C
:10199000C1E9263020F00040704700BF64030020FA
:1019A0002DF451582D7F954C844641EA000313F0E5
:1019B000030349D1403A23D30B6803604B6843606B
:1019C0008B688360CB68C3600B6903614B694361BB
:1019D0008B698361CB69C3610B6A03624B6A4362A3
:1019E0008B6A8362CB6AC3620B6B03634B6B43638B
:1019F0008B6B8363CB6BC36340304031403ADBD2A7
:101A000030320BD30B6803604B6843608B68836094
:101A1000CB68C36010301031103AF3D20C3205D3CA
:101A200051F8043B40F8043B043AF9D2043208D0A0
:101A3000D2071CBF11F8013B00F8013B01D30B8812
:101A400003806046704700BF082A13D38B07B1D0CC
:101A500010F00303AED0C3F10403D21ADB071CBF9E
:101A600011F8013B00F8013BA4D331F8023B20F808
:101A7000023B9FE7043AD9D3013A11F8013B00F841
:101A8000013BF9D20B7803704B7843708B788370ED
:101A90006046704720F0030110F00300C0F1000021
:101AA00051F8043B00F1040C4FEACC0C6FF000023B
:101AB0001CBF22FA0CF213434FF0010C4CEA0C2C21
:101AC0004CEA0C4CA3EB0C0222EA030212EACC1201
:101AD00004BF51F8043B0430F4D0C2F1000102EA23
:101AE0000102B2FA82F2C2F11F0200EBD20070478B
:101AF000F8B500BF000000005FF800F0E50100202D
:101B00005FF800F0B10200205FF800F07D010020D6
:101B10005FF800F021020020091400107D1300106E
:101B2000B11300109D140010E913001001130010F0
:101B300031140010ED120010A1080010351400102F
:101B4000190C00104D1300101D140010CD130010BF
:101B5000A1070010C907001045180010110200105D
:101B600000000840130000001200000011000000F7
:101B70001400000015000000160000000A2A2A2A9E
:101B80002050414E4943202A2A2A0A000A00000018
:101B9000486172647761726520616C61726D2025A5
:101BA0006420616C726561647920636C61696D6544
:101BB0006400000048617264206173736572740090
:101BC00052656C6561736500626F6F74325F773266
:101BD0003571303830000000302E3100322E322E78
:101BE000300000007069636F320000007069636F3D
:101BF0005F63616E6C6962004F637420313820321C
:101C00003032350006005250D3F07542C01B001030
:101C100006005250E182887FC81B00100600525017
:101C20003ABCA911D81B001006005250ABB3605348
:101C3000DC1B001006005250BBFF3CB6E41B00103A
:101C400006005250861C0302EC1B00100600525086
:101C50005422A29DF81B001005005250DE65F46866
:081C6000442000100D0A0000F1
:081C680040FDFF7F01000000B8
:101C7000041C0010101C00101C1C0010281C00105C
:101C8000341C0010401C00104C1C0010581C00108C
:101C90004FF050412DE9F0410027044616461D46FD
:101CA000D1F8008008E0C1E88F7F8CF310883046BF
:101CB000294600F005F9E8B92168EFF3108C72B6F7
:101CC000D1E8CF2F0123002AFAD1C1E8423F002AF0
:101CD000F6D1BFF35F8F94F904302168002BE2DA6C
:101CE000002384F80480C1E88F3F8CF31088012022
:101CF000BDE8F0810020BDE8F08100BF30B5046888
:101D0000EFF3108C72B6D4E8CFEF0125BEF1000FCF
:101D1000F9D1C4E84E5FBEF1000FF4D1BFF35F8F7D
:101D200090F904400568002C10DB0021C5E88F1FE6
:101D30008CF310884FF0504595F90050A54201D121
:101D4000084630BDBDE83040FFF7A2BF4FF050421B
:101D5000126800230271C5E88F3F8CF310880120C0
:101D600030BD00BF0368EFF3108272B6D3E8CFCF67
:101D70000121BCF1000FF9D1C3E84C1FBCF1000FE9
:101D8000F4D1BFF35F8F4FF0FF0C0023016880F8A0
:101D900004C0C1E88F3F82F3108840BF704700BF86
:101DA000844610466AB3013900B501EB020EDCF837
:101DB0000C309B07FBD511F8013F7145CCF808307A
:101DC000F5D1DCF80C30590705D5DCF80830DCF823
:101DD0000C305907F9D4DCF80C30DA0606D5DCF8FB
:101DE0000C30DA06F7D401E0DCF80830DCF80C300F
:101DF0005B07F9D40123CCF820305DF804FBDCF854
:101E00000830DCF80C305907F9D4DCF80C30DA066D
:101E100006D5DCF80C30DA06F7D401E0DCF808303F
:101E2000DCF80C305B07F9D40123CCF82030704784
:101E3000844610466AB3023900B501EB420EDCF865
:101E40000C309B07FBD531F8023F7145CCF80830C8
:101E5000F5D1DCF80C30590705D5DCF80830DCF892
:101E60000C305907F9D4DCF80C30DA0606D5DCF86A
:101E70000C30DA06F7D401E0DCF80830DCF80C307E
:101E80005B07F9D40123CCF820305DF804FBDCF8C3
:101E90000830DCF80C305907F9D4DCF80C30DA06DD
:101EA00006D5DCF80C30DA06F7D401E0DCF80830AF
:101EB000DCF80C305B07F9D40123CCF820307047F4
:101EC0005FF800F015100010100000000000000086
:101ED0000000000000000000000000000000000002
:101EE000B00400206803002000000000300600203D
:101EF00098060020000700200000000000000000FD
:101F000000000000000000000000000000000000D1
:101F100000000000000000000000000000000000C1
:101F200000000000000000000000000000000000B1
:101F300000000000000000000000000000000000A1
:101F40000000000000000000000000000000000091
:101F50000000000000000000000000000000000081
:101F60000000000000000000000000000000000071
:101F70000000000000000000000000000000000061
:101F800001000000000000000E33CDAB34126DE6FE
:101F9000ECDE05000B000000000000000000000067
:101FA0000000000000000000000000000000000031
:101FB0000000000000000000000000000000000021
:101FC0000000000000000000000000000000000011
:101FD0000000000000000000000000000000000001
:101FE00000000000000000000000000000000000F1
:101FF00000000000000000000000000000000000E1
:1020000000000000000000000000000000000000D0
:1020100000000000000000000000000000000000C0
:1020200000000000000000000000000000000000B0
:10203000D3DEFFFFFE010000FF01000008E1FFFF0B
:04204000793512AB31
:040000051000014D99
:00000001FF
